{"abi":[{"type":"constructor","inputs":[{"name":"_krwToken","type":"address","internalType":"address"},{"name":"_jpyToken","type":"address","internalType":"address"},{"name":"_liquidityPool","type":"address","internalType":"address"}],"stateMutability":"nonpayable"},{"type":"function","name":"BANK_ROLE","inputs":[],"outputs":[{"name":"","type":"bytes32","internalType":"bytes32"}],"stateMutability":"view"},{"type":"function","name":"DEFAULT_ADMIN_ROLE","inputs":[],"outputs":[{"name":"","type":"bytes32","internalType":"bytes32"}],"stateMutability":"view"},{"type":"function","name":"approve","inputs":[{"name":"to","type":"address","internalType":"address"},{"name":"tokenId","type":"uint256","internalType":"uint256"}],"outputs":[],"stateMutability":"nonpayable"},{"type":"function","name":"approveOrder","inputs":[{"name":"tokenId","type":"uint256","internalType":"uint256"},{"name":"","type":"bytes","internalType":"bytes"}],"outputs":[],"stateMutability":"nonpayable"},{"type":"function","name":"balanceOf","inputs":[{"name":"owner","type":"address","internalType":"address"}],"outputs":[{"name":"","type":"uint256","internalType":"uint256"}],"stateMutability":"view"},{"type":"function","name":"cancelOrder","inputs":[{"name":"tokenId","type":"uint256","internalType":"uint256"}],"outputs":[],"stateMutability":"nonpayable"},{"type":"function","name":"getApproved","inputs":[{"name":"tokenId","type":"uint256","internalType":"uint256"}],"outputs":[{"name":"","type":"address","internalType":"address"}],"stateMutability":"view"},{"type":"function","name":"getRoleAdmin","inputs":[{"name":"role","type":"bytes32","internalType":"bytes32"}],"outputs":[{"name":"","type":"bytes32","internalType":"bytes32"}],"stateMutability":"view"},{"type":"function","name":"grantRole","inputs":[{"name":"role","type":"bytes32","internalType":"bytes32"},{"name":"account","type":"address","internalType":"address"}],"outputs":[],"stateMutability":"nonpayable"},{"type":"function","name":"hasRole","inputs":[{"name":"role","type":"bytes32","internalType":"bytes32"},{"name":"account","type":"address","internalType":"address"}],"outputs":[{"name":"","type":"bool","internalType":"bool"}],"stateMutability":"view"},{"type":"function","name":"isApprovedForAll","inputs":[{"name":"owner","type":"address","internalType":"address"},{"name":"operator","type":"address","internalType":"address"}],"outputs":[{"name":"","type":"bool","internalType":"bool"}],"stateMutability":"view"},{"type":"function","name":"jpyToken","inputs":[],"outputs":[{"name":"","type":"address","internalType":"contract IERC20"}],"stateMutability":"view"},{"type":"function","name":"krwToken","inputs":[],"outputs":[{"name":"","type":"address","internalType":"contract IERC20"}],"stateMutability":"view"},{"type":"function","name":"liquidityPool","inputs":[],"outputs":[{"name":"","type":"address","internalType":"contract IRailXPool"}],"stateMutability":"view"},{"type":"function","name":"name","inputs":[],"outputs":[{"name":"","type":"string","internalType":"string"}],"stateMutability":"view"},{"type":"function","name":"nextId","inputs":[],"outputs":[{"name":"","type":"uint256","internalType":"uint256"}],"stateMutability":"view"},{"type":"function","name":"orders","inputs":[{"name":"","type":"uint256","internalType":"uint256"}],"outputs":[{"name":"metaHash","type":"bytes32","internalType":"bytes32"},{"name":"encKeyWrapHash","type":"bytes32","internalType":"bytes32"},{"name":"amountKRW","type":"uint256","internalType":"uint256"},{"name":"minAmountJPY","type":"uint256","internalType":"uint256"},{"name":"srcBank","type":"address","internalType":"address"},{"name":"dstBank","type":"address","internalType":"address"},{"name":"createdAt","type":"uint64","internalType":"uint64"},{"name":"expiry","type":"uint64","internalType":"uint64"},{"name":"status","type":"uint8","internalType":"enum RemittanceOrder721.Status"}],"stateMutability":"view"},{"type":"function","name":"ownerOf","inputs":[{"name":"tokenId","type":"uint256","internalType":"uint256"}],"outputs":[{"name":"","type":"address","internalType":"address"}],"stateMutability":"view"},{"type":"function","name":"renounceRole","inputs":[{"name":"role","type":"bytes32","internalType":"bytes32"},{"name":"account","type":"address","internalType":"address"}],"outputs":[],"stateMutability":"nonpayable"},{"type":"function","name":"requestOrder","inputs":[{"name":"metaHash","type":"bytes32","internalType":"bytes32"},{"name":"encKeyWrapHash","type":"bytes32","internalType":"bytes32"},{"name":"amountKRW","type":"uint256","internalType":"uint256"},{"name":"minAmountJPY","type":"uint256","internalType":"uint256"},{"name":"dstBank","type":"address","internalType":"address"},{"name":"expiry","type":"uint64","internalType":"uint64"}],"outputs":[{"name":"","type":"uint256","internalType":"uint256"}],"stateMutability":"nonpayable"},{"type":"function","name":"revokeRole","inputs":[{"name":"role","type":"bytes32","internalType":"bytes32"},{"name":"account","type":"address","internalType":"address"}],"outputs":[],"stateMutability":"nonpayable"},{"type":"function","name":"safeTransferFrom","inputs":[{"name":"from","type":"address","internalType":"address"},{"name":"to","type":"address","internalType":"address"},{"name":"tokenId","type":"uint256","internalType":"uint256"}],"outputs":[],"stateMutability":"nonpayable"},{"type":"function","name":"safeTransferFrom","inputs":[{"name":"from","type":"address","internalType":"address"},{"name":"to","type":"address","internalType":"address"},{"name":"tokenId","type":"uint256","internalType":"uint256"},{"name":"data","type":"bytes","internalType":"bytes"}],"outputs":[],"stateMutability":"nonpayable"},{"type":"function","name":"setApprovalForAll","inputs":[{"name":"operator","type":"address","internalType":"address"},{"name":"approved","type":"bool","internalType":"bool"}],"outputs":[],"stateMutability":"nonpayable"},{"type":"function","name":"supportsInterface","inputs":[{"name":"interfaceId","type":"bytes4","internalType":"bytes4"}],"outputs":[{"name":"","type":"bool","internalType":"bool"}],"stateMutability":"view"},{"type":"function","name":"symbol","inputs":[],"outputs":[{"name":"","type":"string","internalType":"string"}],"stateMutability":"view"},{"type":"function","name":"tokenURI","inputs":[{"name":"tokenId","type":"uint256","internalType":"uint256"}],"outputs":[{"name":"","type":"string","internalType":"string"}],"stateMutability":"view"},{"type":"function","name":"transferFrom","inputs":[{"name":"from","type":"address","internalType":"address"},{"name":"to","type":"address","internalType":"address"},{"name":"tokenId","type":"uint256","internalType":"uint256"}],"outputs":[],"stateMutability":"nonpayable"},{"type":"event","name":"Approval","inputs":[{"name":"owner","type":"address","indexed":true,"internalType":"address"},{"name":"approved","type":"address","indexed":true,"internalType":"address"},{"name":"tokenId","type":"uint256","indexed":true,"internalType":"uint256"}],"anonymous":false},{"type":"event","name":"ApprovalForAll","inputs":[{"name":"owner","type":"address","indexed":true,"internalType":"address"},{"name":"operator","type":"address","indexed":true,"internalType":"address"},{"name":"approved","type":"bool","indexed":false,"internalType":"bool"}],"anonymous":false},{"type":"event","name":"OrderApproved","inputs":[{"name":"tokenId","type":"uint256","indexed":true,"internalType":"uint256"},{"name":"bank","type":"address","indexed":true,"internalType":"address"}],"anonymous":false},{"type":"event","name":"OrderCanceled","inputs":[{"name":"tokenId","type":"uint256","indexed":true,"internalType":"uint256"},{"name":"bank","type":"address","indexed":true,"internalType":"address"}],"anonymous":false},{"type":"event","name":"OrderRequested","inputs":[{"name":"tokenId","type":"uint256","indexed":true,"internalType":"uint256"},{"name":"srcBank","type":"address","indexed":true,"internalType":"address"},{"name":"dstBank","type":"address","indexed":true,"internalType":"address"},{"name":"amountKRW","type":"uint256","indexed":false,"internalType":"uint256"}],"anonymous":false},{"type":"event","name":"OrderSettled","inputs":[{"name":"tokenId","type":"uint256","indexed":true,"internalType":"uint256"},{"name":"bank","type":"address","indexed":true,"internalType":"address"},{"name":"receivedJPY","type":"uint256","indexed":false,"internalType":"uint256"}],"anonymous":false},{"type":"event","name":"RoleAdminChanged","inputs":[{"name":"role","type":"bytes32","indexed":true,"internalType":"bytes32"},{"name":"previousAdminRole","type":"bytes32","indexed":true,"internalType":"bytes32"},{"name":"newAdminRole","type":"bytes32","indexed":true,"internalType":"bytes32"}],"anonymous":false},{"type":"event","name":"RoleGranted","inputs":[{"name":"role","type":"bytes32","indexed":true,"internalType":"bytes32"},{"name":"account","type":"address","indexed":true,"internalType":"address"},{"name":"sender","type":"address","indexed":true,"internalType":"address"}],"anonymous":false},{"type":"event","name":"RoleRevoked","inputs":[{"name":"role","type":"bytes32","indexed":true,"internalType":"bytes32"},{"name":"account","type":"address","indexed":true,"internalType":"address"},{"name":"sender","type":"address","indexed":true,"internalType":"address"}],"anonymous":false},{"type":"event","name":"Transfer","inputs":[{"name":"from","type":"address","indexed":true,"internalType":"address"},{"name":"to","type":"address","indexed":true,"internalType":"address"},{"name":"tokenId","type":"uint256","indexed":true,"internalType":"uint256"}],"anonymous":false}],"bytecode":{"object":"0x608060405234801562000010575f80fd5b5060405162002855380380620028558339810160408190526200003391620001b8565b6040518060400160405280601681526020017f5261696c582052656d697474616e6365204f7264657200000000000000000000815250604051806040016040528060048152602001635258524f60e01b815250815f90816200009691906200029d565b506001620000a582826200029d565b50620000b691505f905033620000f9565b600780546001600160a01b039485166001600160a01b03199182161790915560088054938516938216939093179092556009805491909316911617905562000369565b5f8281526006602090815260408083206001600160a01b038516845290915290205460ff1662000198575f8281526006602090815260408083206001600160a01b03851684529091529020805460ff19166001179055620001573390565b6001600160a01b0316816001600160a01b0316837f2f8788117e7eff1d82e926ec794901d17c78024a50270940304540a733656f0d60405160405180910390a45b5050565b80516001600160a01b0381168114620001b3575f80fd5b919050565b5f805f60608486031215620001cb575f80fd5b620001d6846200019c565b9250620001e6602085016200019c565b9150620001f6604085016200019c565b90509250925092565b634e487b7160e01b5f52604160045260245ffd5b600181811c908216806200022857607f821691505b6020821081036200024757634e487b7160e01b5f52602260045260245ffd5b50919050565b601f8211156200029857805f5260205f20601f840160051c81016020851015620002745750805b601f840160051c820191505b8181101562000295575f815560010162000280565b50505b505050565b81516001600160401b03811115620002b957620002b9620001ff565b620002d181620002ca845462000213565b846200024d565b602080601f83116001811462000307575f8415620002ef5750858301515b5f19600386901b1c1916600185901b17855562000361565b5f85815260208120601f198616915b82811015620003375788860151825594840194600190910190840162000316565b50858210156200035557878501515f19600388901b60f8161c191681555b505060018460011b0185555b505050505050565b6124de80620003775f395ff3fe608060405234801561000f575f80fd5b50600436106101bb575f3560e01c80636352211e116100f3578063a22cb46511610093578063c87b56dd1161006e578063c87b56dd14610430578063d547741f14610443578063e985e9c514610456578063fa1acc6314610491575f80fd5b8063a22cb4651461037c578063a85c38ef1461038f578063b88d4fde1461041d575f80fd5b806391d14854116100ce57806391d148541461034757806395d89b411461035a5780639bfafc2514610362578063a217fddf14610375575f80fd5b80636352211e1461030e578063665a11ca1461032157806370a0823114610334575f80fd5b80632f2ff15d1161015e57806342842e0e1161013957806342842e0e146102cc578063514fcac7146102df5780635eadce70146102f257806361b8ce8c14610305575f80fd5b80632f2ff15d1461029357806336568abe146102a6578063417aafef146102b9575f80fd5b8063095ea7b311610199578063095ea7b3146102275780630eb714321461023c57806323b872dd1461025e578063248a9ca314610271575f80fd5b806301ffc9a7146101bf57806306fdde03146101e7578063081812fc146101fc575b5f80fd5b6101d26101cd366004611d9a565b6104a4565b60405190151581526020015b60405180910390f35b6101ef6104b4565b6040516101de9190611e02565b61020f61020a366004611e14565b610543565b6040516001600160a01b0390911681526020016101de565b61023a610235366004611e46565b610568565b005b6102505f8051602061248983398151915281565b6040519081526020016101de565b61023a61026c366004611e6e565b610681565b61025061027f366004611e14565b5f9081526006602052604090206001015490565b61023a6102a1366004611ea7565b6106b2565b61023a6102b4366004611ea7565b6106d6565b61023a6102c7366004611ed1565b610754565b61023a6102da366004611e6e565b6108ba565b61023a6102ed366004611e14565b6108d4565b60085461020f906001600160a01b031681565b610250600b5481565b61020f61031c366004611e14565b610a2b565b60095461020f906001600160a01b031681565b610250610342366004611f46565b610a8a565b6101d2610355366004611ea7565b610b0e565b6101ef610b38565b60075461020f906001600160a01b031681565b6102505f81565b61023a61038a366004611f6c565b610b47565b61040861039d366004611e14565b600a6020525f9081526040902080546001820154600283015460038401546004850154600586015460069096015494959394929391926001600160a01b039182169291821691600160a01b900467ffffffffffffffff9081169190811690600160401b900460ff1689565b6040516101de99989796959493929190611fb5565b61023a61042b366004612046565b610b52565b6101ef61043e366004611e14565b610b8a565b61023a610451366004611ea7565b610bfa565b6101d261046436600461211b565b6001600160a01b039182165f90815260056020908152604080832093909416825291909152205460ff1690565b61025061049f366004612143565b610c1e565b5f6104ae82610de0565b92915050565b60605f80546104c2906121a7565b80601f01602080910402602001604051908101604052809291908181526020018280546104ee906121a7565b80156105395780601f1061051057610100808354040283529160200191610539565b820191905f5260205f20905b81548152906001019060200180831161051c57829003601f168201915b5050505050905090565b5f61054d82610e04565b505f908152600460205260409020546001600160a01b031690565b5f61057282610a2b565b9050806001600160a01b0316836001600160a01b0316036105e45760405162461bcd60e51b815260206004820152602160248201527f4552433732313a20617070726f76616c20746f2063757272656e74206f776e656044820152603960f91b60648201526084015b60405180910390fd5b336001600160a01b038216148061060057506106008133610464565b6106725760405162461bcd60e51b815260206004820152603d60248201527f4552433732313a20617070726f76652063616c6c6572206973206e6f7420746f60448201527f6b656e206f776e6572206f7220617070726f76656420666f7220616c6c00000060648201526084016105db565b61067c8383610e65565b505050565b61068b3382610ed2565b6106a75760405162461bcd60e51b81526004016105db906121df565b61067c838383610f4f565b5f828152600660205260409020600101546106cc816110b1565b61067c83836110bb565b6001600160a01b03811633146107465760405162461bcd60e51b815260206004820152602f60248201527f416363657373436f6e74726f6c3a2063616e206f6e6c792072656e6f756e636560448201526e103937b632b9903337b91039b2b63360891b60648201526084016105db565b6107508282611140565b5050565b5f8051602061248983398151915261076b816110b1565b5f848152600a6020526040902060058101546001600160a01b031633146107c25760405162461bcd60e51b815260206004820152600b60248201526a6e6f742064737442616e6b60a81b60448201526064016105db565b5f6006820154600160401b900460ff1660038111156107e3576107e3611fa1565b146108205760405162461bcd60e51b815260206004820152600d60248201526c696e76616c696420737461746560981b60448201526064016105db565b600681015467ffffffffffffffff164211156108685760405162461bcd60e51b8152602060048201526007602482015266195e1c1a5c995960ca1b60448201526064016105db565b60068101805460ff60401b1916600160401b17905561088785826111a6565b604051339086907ffee75731dd0f0c7597f1e678d53e565826519f6f5fa21034c8f8ed760b78a4c7905f90a35050505050565b61067c83838360405180602001604052805f815250610b52565b5f805160206124898339815191526108eb816110b1565b5f828152600a6020526040902060048101546001600160a01b031633148061091f575060058101546001600160a01b031633145b61095d5760405162461bcd60e51b815260206004820152600f60248201526e1b9bdd081c185c9d1a58da5c185b9d608a1b60448201526064016105db565b5f6006820154600160401b900460ff16600381111561097e5761097e611fa1565b146109bb5760405162461bcd60e51b815260206004820152600d60248201526c696e76616c696420737461746560981b60448201526064016105db565b60068101805460ff60401b191668030000000000000000179055600481015460028201546007546109fa926001600160a01b0391821692911690611316565b604051339084907f9384174c8517f5537b08e79211fc039e8a098571a3a2b4cb21dfa6f3237e8de1905f90a3505050565b5f818152600260205260408120546001600160a01b0316806104ae5760405162461bcd60e51b8152602060048201526018602482015277115490cdcc8c4e881a5b9d985b1a59081d1bdad95b88125160421b60448201526064016105db565b5f6001600160a01b038216610af35760405162461bcd60e51b815260206004820152602960248201527f4552433732313a2061646472657373207a65726f206973206e6f7420612076616044820152683634b21037bbb732b960b91b60648201526084016105db565b506001600160a01b03165f9081526003602052604090205490565b5f9182526006602090815260408084206001600160a01b0393909316845291905290205460ff1690565b6060600180546104c2906121a7565b610750338383611379565b610b5c3383610ed2565b610b785760405162461bcd60e51b81526004016105db906121df565b610b848484848461143e565b50505050565b6060610b9582610e04565b5f610baa60408051602081019091525f815290565b90505f815111610bc85760405180602001604052805f815250610bf3565b80610bd284611471565b604051602001610be392919061222c565b6040516020818303038152906040525b9392505050565b5f82815260066020526040902060010154610c14816110b1565b61067c8383611140565b5f5f80516020612489833981519152610c36816110b1565b600754610c4e906001600160a01b0316333089611501565b5f600b5f8154610c5d9061226e565b91829055509050610c6e8582611539565b60408051610120810182528a815260208082018b81528284018b8152606084018b815233608086019081526001600160a01b038c811660a088019081524267ffffffffffffffff90811660c08a019081528e821660e08b019081525f6101008c018181528e8252600a909b529b909b208a5181559751600189015595516002880155935160038088019190915592516004870180549184166001600160a01b03199092169190911790555160058601805495518516600160a01b026001600160e01b031990961691909216179390931790925594516006830180549190961667ffffffffffffffff198216811787559351949592949368ffffffffffffffffff199091161790600160401b908490811115610d8b57610d8b611fa1565b0217905550506040518881526001600160a01b0387169150339083907fe699ccb427d3239019e23a73f5fc27bd23f4e2623efa3afe209d3d66b098bfda9060200160405180910390a498975050505050505050565b5f6001600160e01b03198216637965db0b60e01b14806104ae57506104ae82611552565b5f818152600260205260409020546001600160a01b0316610e625760405162461bcd60e51b8152602060048201526018602482015277115490cdcc8c4e881a5b9d985b1a59081d1bdad95b88125160421b60448201526064016105db565b50565b5f81815260046020526040902080546001600160a01b0319166001600160a01b0384169081179091558190610e9982610a2b565b6001600160a01b03167f8c5be1e5ebec7d5bd14f71427d1e84f3dd0314c0f7b2291e5b200ac8c7c3b92560405160405180910390a45050565b5f80610edd83610a2b565b9050806001600160a01b0316846001600160a01b03161480610f2357506001600160a01b038082165f9081526005602090815260408083209388168352929052205460ff165b80610f475750836001600160a01b0316610f3c84610543565b6001600160a01b0316145b949350505050565b826001600160a01b0316610f6282610a2b565b6001600160a01b031614610f885760405162461bcd60e51b81526004016105db90612286565b6001600160a01b038216610fea5760405162461bcd60e51b8152602060048201526024808201527f4552433732313a207472616e7366657220746f20746865207a65726f206164646044820152637265737360e01b60648201526084016105db565b826001600160a01b0316610ffd82610a2b565b6001600160a01b0316146110235760405162461bcd60e51b81526004016105db90612286565b5f81815260046020908152604080832080546001600160a01b03199081169091556001600160a01b038781168086526003855283862080545f1901905590871680865283862080546001019055868652600290945282852080549092168417909155905184937fddf252ad1be2c89b69c2b068fc378daa952ba7f163c4a11628f55a4df523b3ef91a4505050565b610e6281336115a1565b6110c58282610b0e565b610750575f8281526006602090815260408083206001600160a01b03851684529091529020805460ff191660011790556110fc3390565b6001600160a01b0316816001600160a01b0316837f2f8788117e7eff1d82e926ec794901d17c78024a50270940304540a733656f0d60405160405180910390a45050565b61114a8282610b0e565b15610750575f8281526006602090815260408083206001600160a01b0385168085529252808320805460ff1916905551339285917ff6391f5c32d9c69d2a47ea670b442974b53935d1edc7fd64eb21e047a839171b9190a45050565b600754600954600283015460405163095ea7b360e01b81526001600160a01b039283166004820152602481019190915291169063095ea7b3906044016020604051808303815f875af11580156111fe573d5f803e3d5ffd5b505050506040513d601f19601f8201168201806040525081019061122291906122cb565b506009546007546002830154600384015460058501546040516379f3754560e11b81526001600160a01b03948516600482015260248101939093526044830191909152821660648201525f92919091169063f3e6ea8a906084016020604051808303815f875af1158015611298573d5f803e3d5ffd5b505050506040513d601f19601f820116820180604052508101906112bc91906122e6565b60068301805460ff60401b191668020000000000000000179055604051818152909150339084907fb8785654df9f6f608cd25d14b761c16342132596d8bc1734153874d816c76e83906020015b60405180910390a3505050565b6040516001600160a01b03831660248201526044810182905261067c90849063a9059cbb60e01b906064015b60408051601f198184030181529190526020810180516001600160e01b03166001600160e01b0319909316929092179091526115fa565b816001600160a01b0316836001600160a01b0316036113da5760405162461bcd60e51b815260206004820152601960248201527f4552433732313a20617070726f766520746f2063616c6c65720000000000000060448201526064016105db565b6001600160a01b038381165f81815260056020908152604080832094871680845294825291829020805460ff191686151590811790915591519182527f17307eab39ab6107e8899845ad3d59bd9653f200f220920489ca2b5937696c319101611309565b611449848484610f4f565b611455848484846116cd565b610b845760405162461bcd60e51b81526004016105db906122fd565b60605f61147d836117ca565b60010190505f8167ffffffffffffffff81111561149c5761149c612032565b6040519080825280601f01601f1916602001820160405280156114c6576020820181803683370190505b5090508181016020015b5f19016f181899199a1a9b1b9c1cb0b131b232b360811b600a86061a8153600a85049450846114d057509392505050565b6040516001600160a01b0380851660248301528316604482015260648101829052610b849085906323b872dd60e01b90608401611342565b610750828260405180602001604052805f8152506118a1565b5f6001600160e01b031982166380ac58cd60e01b148061158257506001600160e01b03198216635b5e139f60e01b145b806104ae57506301ffc9a760e01b6001600160e01b03198316146104ae565b6115ab8282610b0e565b610750576115b8816118d3565b6115c38360206118e5565b6040516020016115d492919061234f565b60408051601f198184030181529082905262461bcd60e51b82526105db91600401611e02565b5f61164e826040518060400160405280602081526020017f5361666545524332303a206c6f772d6c6576656c2063616c6c206661696c6564815250856001600160a01b0316611a7b9092919063ffffffff16565b905080515f148061166e57508080602001905181019061166e91906122cb565b61067c5760405162461bcd60e51b815260206004820152602a60248201527f5361666545524332303a204552433230206f7065726174696f6e20646964206e6044820152691bdd081cdd58d8d9595960b21b60648201526084016105db565b5f6001600160a01b0384163b156117bf57604051630a85bd0160e11b81526001600160a01b0385169063150b7a02906117109033908990889088906004016123c3565b6020604051808303815f875af192505050801561174a575060408051601f3d908101601f19168201909252611747918101906123ff565b60015b6117a5573d808015611777576040519150601f19603f3d011682016040523d82523d5f602084013e61177c565b606091505b5080515f0361179d5760405162461bcd60e51b81526004016105db906122fd565b805181602001fd5b6001600160e01b031916630a85bd0160e11b149050610f47565b506001949350505050565b5f8072184f03e93ff9f4daa797ed6e38ed64bf6a1f0160401b83106118085772184f03e93ff9f4daa797ed6e38ed64bf6a1f0160401b830492506040015b6d04ee2d6d415b85acef81000000008310611834576d04ee2d6d415b85acef8100000000830492506020015b662386f26fc10000831061185257662386f26fc10000830492506010015b6305f5e100831061186a576305f5e100830492506008015b612710831061187e57612710830492506004015b60648310611890576064830492506002015b600a83106104ae5760010192915050565b6118ab8383611a89565b6118b75f8484846116cd565b61067c5760405162461bcd60e51b81526004016105db906122fd565b60606104ae6001600160a01b03831660145b60605f6118f383600261241a565b6118fe906002612431565b67ffffffffffffffff81111561191657611916612032565b6040519080825280601f01601f191660200182016040528015611940576020820181803683370190505b509050600360fc1b815f8151811061195a5761195a612444565b60200101906001600160f81b03191690815f1a905350600f60fb1b8160018151811061198857611988612444565b60200101906001600160f81b03191690815f1a9053505f6119aa84600261241a565b6119b5906001612431565b90505b6001811115611a2c576f181899199a1a9b1b9c1cb0b131b232b360811b85600f16601081106119e9576119e9612444565b1a60f81b8282815181106119ff576119ff612444565b60200101906001600160f81b03191690815f1a90535060049490941c93611a2581612458565b90506119b8565b508315610bf35760405162461bcd60e51b815260206004820181905260248201527f537472696e67733a20686578206c656e67746820696e73756666696369656e7460448201526064016105db565b6060610f4784845f85611c11565b6001600160a01b038216611adf5760405162461bcd60e51b815260206004820181905260248201527f4552433732313a206d696e7420746f20746865207a65726f206164647265737360448201526064016105db565b5f818152600260205260409020546001600160a01b031615611b435760405162461bcd60e51b815260206004820152601c60248201527f4552433732313a20746f6b656e20616c7265616479206d696e7465640000000060448201526064016105db565b5f818152600260205260409020546001600160a01b031615611ba75760405162461bcd60e51b815260206004820152601c60248201527f4552433732313a20746f6b656e20616c7265616479206d696e7465640000000060448201526064016105db565b6001600160a01b0382165f81815260036020908152604080832080546001019055848352600290915280822080546001600160a01b0319168417905551839291907fddf252ad1be2c89b69c2b068fc378daa952ba7f163c4a11628f55a4df523b3ef908290a45050565b606082471015611c725760405162461bcd60e51b815260206004820152602660248201527f416464726573733a20696e73756666696369656e742062616c616e636520666f6044820152651c8818d85b1b60d21b60648201526084016105db565b5f80866001600160a01b03168587604051611c8d919061246d565b5f6040518083038185875af1925050503d805f8114611cc7576040519150601f19603f3d011682016040523d82523d5f602084013e611ccc565b606091505b5091509150611cdd87838387611ce8565b979650505050505050565b60608315611d565782515f03611d4f576001600160a01b0385163b611d4f5760405162461bcd60e51b815260206004820152601d60248201527f416464726573733a2063616c6c20746f206e6f6e2d636f6e747261637400000060448201526064016105db565b5081610f47565b610f478383815115611d6b5781518083602001fd5b8060405162461bcd60e51b81526004016105db9190611e02565b6001600160e01b031981168114610e62575f80fd5b5f60208284031215611daa575f80fd5b8135610bf381611d85565b5f5b83811015611dcf578181015183820152602001611db7565b50505f910152565b5f8151808452611dee816020860160208601611db5565b601f01601f19169290920160200192915050565b602081525f610bf36020830184611dd7565b5f60208284031215611e24575f80fd5b5035919050565b80356001600160a01b0381168114611e41575f80fd5b919050565b5f8060408385031215611e57575f80fd5b611e6083611e2b565b946020939093013593505050565b5f805f60608486031215611e80575f80fd5b611e8984611e2b565b9250611e9760208501611e2b565b9150604084013590509250925092565b5f8060408385031215611eb8575f80fd5b82359150611ec860208401611e2b565b90509250929050565b5f805f60408486031215611ee3575f80fd5b83359250602084013567ffffffffffffffff80821115611f01575f80fd5b818601915086601f830112611f14575f80fd5b813581811115611f22575f80fd5b876020828501011115611f33575f80fd5b6020830194508093505050509250925092565b5f60208284031215611f56575f80fd5b610bf382611e2b565b8015158114610e62575f80fd5b5f8060408385031215611f7d575f80fd5b611f8683611e2b565b91506020830135611f9681611f5f565b809150509250929050565b634e487b7160e01b5f52602160045260245ffd5b8981526020810189905260408101889052606081018790526001600160a01b038681166080830152851660a082015267ffffffffffffffff84811660c0830152831660e082015261012081016004831061201d57634e487b7160e01b5f52602160045260245ffd5b826101008301529a9950505050505050505050565b634e487b7160e01b5f52604160045260245ffd5b5f805f8060808587031215612059575f80fd5b61206285611e2b565b935061207060208601611e2b565b925060408501359150606085013567ffffffffffffffff80821115612093575f80fd5b818701915087601f8301126120a6575f80fd5b8135818111156120b8576120b8612032565b604051601f8201601f19908116603f011681019083821181831017156120e0576120e0612032565b816040528281528a60208487010111156120f8575f80fd5b826020860160208301375f60208483010152809550505050505092959194509250565b5f806040838503121561212c575f80fd5b61213583611e2b565b9150611ec860208401611e2b565b5f805f805f8060c08789031215612158575f80fd5b8635955060208701359450604087013593506060870135925061217d60808801611e2b565b915060a087013567ffffffffffffffff81168114612199575f80fd5b809150509295509295509295565b600181811c908216806121bb57607f821691505b6020821081036121d957634e487b7160e01b5f52602260045260245ffd5b50919050565b6020808252602d908201527f4552433732313a2063616c6c6572206973206e6f7420746f6b656e206f776e6560408201526c1c881bdc88185c1c1c9bdd9959609a1b606082015260800190565b5f835161223d818460208801611db5565b835190830190612251818360208801611db5565b01949350505050565b634e487b7160e01b5f52601160045260245ffd5b5f6001820161227f5761227f61225a565b5060010190565b60208082526025908201527f4552433732313a207472616e736665722066726f6d20696e636f72726563742060408201526437bbb732b960d91b606082015260800190565b5f602082840312156122db575f80fd5b8151610bf381611f5f565b5f602082840312156122f6575f80fd5b5051919050565b60208082526032908201527f4552433732313a207472616e7366657220746f206e6f6e20455243373231526560408201527131b2b4bb32b91034b6b83632b6b2b73a32b960711b606082015260800190565b7f416363657373436f6e74726f6c3a206163636f756e742000000000000000000081525f8351612386816017850160208801611db5565b7001034b99036b4b9b9b4b733903937b6329607d1b60179184019182015283516123b7816028840160208801611db5565b01602801949350505050565b6001600160a01b03858116825284166020820152604081018390526080606082018190525f906123f590830184611dd7565b9695505050505050565b5f6020828403121561240f575f80fd5b8151610bf381611d85565b80820281158282048414176104ae576104ae61225a565b808201808211156104ae576104ae61225a565b634e487b7160e01b5f52603260045260245ffd5b5f816124665761246661225a565b505f190190565b5f825161247e818460208701611db5565b919091019291505056fe591fa5458fe051cc8c02c405479bd38e00713c98dbd3db209d982048f1e638faa2646970667358221220d983286baa22ba705dfeb27ec3ba133c08a26af1880457135844a67fc1b949b264736f6c63430008180033","linkReferences":{}},"methodIdentifiers":{"BANK_ROLE()":"0eb71432","DEFAULT_ADMIN_ROLE()":"a217fddf","approve(address,uint256)":"095ea7b3","approveOrder(uint256,bytes)":"417aafef","balanceOf(address)":"70a08231","cancelOrder(uint256)":"514fcac7","getApproved(uint256)":"081812fc","getRoleAdmin(bytes32)":"248a9ca3","grantRole(bytes32,address)":"2f2ff15d","hasRole(bytes32,address)":"91d14854","isApprovedForAll(address,address)":"e985e9c5","jpyToken()":"5eadce70","krwToken()":"9bfafc25","liquidityPool()":"665a11ca","name()":"06fdde03","nextId()":"61b8ce8c","orders(uint256)":"a85c38ef","ownerOf(uint256)":"6352211e","renounceRole(bytes32,address)":"36568abe","requestOrder(bytes32,bytes32,uint256,uint256,address,uint64)":"fa1acc63","revokeRole(bytes32,address)":"d547741f","safeTransferFrom(address,address,uint256)":"42842e0e","safeTransferFrom(address,address,uint256,bytes)":"b88d4fde","setApprovalForAll(address,bool)":"a22cb465","supportsInterface(bytes4)":"01ffc9a7","symbol()":"95d89b41","tokenURI(uint256)":"c87b56dd","transferFrom(address,address,uint256)":"23b872dd"},"id":36}